:020000040800F2
:10400000E04C00200141000857720008716600086A
:1040100055720008B74B0008F5A200080000000028
:10402000000000000000000000000000D18A00082D
:104030006D540008000000005D7900082D91000813
:104040001B4100081B4100081B4100081B410008E0
:104050001B4100081B4100081B4100081B410008D0
:104060001B4100081B4100081B4100081B410008C0
:104070001B4100081B4100081B4100081B410008B0
:104080001B4100081B4100081B4100083DA100081E
:10409000F5A100081B4100081B4100081B41000856
:1040A0001B4100081B4100081B4100081B41000880
:1040B0001B4100081B4100081B4100081B41000870
:1040C0001B4100081B4100081B4100081B41000860
:1040D0001B410008E1990008E5990008819A000851
:1040E0001B4100081B4100081B410008DFF80CD0F1
:1040F00000F02AFC00480047A1D10008E04C002055
:104100000648804706480047FEE7FEE7FEE7FEE771
:10411000FEE7FEE7FEE7FEE7FEE7FEE7A191000807
:10412000ED4000082DE9F05F0546002092469B46D1
:1041300088460646814640241BE0284641464746BD
:10414000224600F0F6FA52465B46801A994110D397
:1041500010461946224600F0DDFA2D1A67EB0108D9
:104160004F4622460120002100F0D4FA17EB000947
:104170004E41201EA4F10104DFDC484631462A46A8
:104180004346BDE8F09F40EA01039B0703D009E0E6
:1041900008C9121F08C0042AFAD203E011F8013B33
:1041A00000F8013B521EF9D27047D2B201E000F88C
:1041B000012B491EFBD270470022F6E710B50446DA
:1041C0000846114602462046FFF7EFFF204610BD85
:1041D00030B50EE003460A4601E05B1C521C1C7819
:1041E0001578AC4201D1002CF7D115F0FF0F04D0A7
:1041F000401C0278002AEDD1002030BD10B50446E5
:1042000004E00B7800F8013B03B1491C521EF8D2C0
:10421000204610BD0146002000E0401C0A5C002A38
:10422000FBD170470246C9B200E0401C0378002B66
:10423000FBD102E003788B4203D0401E9042F9D2BA
:10424000002070472DE9F0470F469146804604460E
:10425000002614F8015B2DB100F08EFA0068405D75
:10426000C007F6D12B2D02D02D2D18D0641E4A4642
:104270003946204600F084FA27B13968A14201D1BD
:10428000C7F8008071054FF002040BD540420028AA
:1042900003DD06F0EFF80460A007BDE8F08746F400
:1042A0008066E4E70028F8DA06F0E4F804606FF0CE
:1042B0000040F2E7F0B480EA0102D20F4300B3EB12
:1042C000410F02D20346084619464B0042D0C30DA7
:1042D000DDB2C1F3C7542C1B202C35DAC1F3160113
:1042E00041F4000502B16D42C4F1200605FA06F161
:1042F00025412844B3EBD05F23D0C2B1012CA0EB01
:10430000C35009DCF0BC4FF0004202EAC35200F592
:104310000000DBB200F08CBA400000F1807000EBCE
:10432000C350A0F1807040EAD170490009E049080B
:1043300041EAC071A0EBC35000F50000400800EB5B
:10434000C350F0BC00F06BBA5142012303EB4101B2
:10435000801AF6E7F0BC704781F00041AAE780F0D0
:104360000040A7E72DE9FE4F074681EA0300C00F92
:104370000E46019021F0004123F00044B81AA141FB
:1043800005D23846314617461E460B46024623F0F4
:104390000040104304D13846314603B0BDE8F08FE9
:1043A000350DC5F30A00C3F30A510290401A00907C
:1043B000402868DAC3F3130040F4801B019892464A
:1043C00020B10023D2EB030A63EB0B0B0098594694
:1043D000C0F14002504600F09DF980460C46504620
:1043E0005946009A00F0B5F9C0197141EF1785EAF6
:1043F00011533B4340D0019A52B3009A012A11DC79
:104400000022801A4FF0004361EB055103EA055387
:104410008018CDE9002341F580114246234600F083
:1044200041FABAE72E050025401B61EB0601401951
:1044300041F58012001852412818A6F5001343EBED
:10444000020140EAD470294318EB0808644113E0E4
:1044500064084FEA38084FF0000244EAC0744FEA9B
:104460000553801A61EB0301801841F5801149085A
:104470004FEA3000801859414246234603B0BDE858
:10448000F04F00F002BA0198012240000023D0EB67
:10449000020263EBE07301984FEAE074381A66EBAE
:1044A0000401EBE783F000435CE781F0004159E74A
:1044B0002DE9FE4F81EA030421F0004504F0004499
:1044C00023F000414FF0000A009450EA050302D0A7
:1044D00052EA010304D10020014603B0BDE8F08F89
:1044E000C1F30A53C5F30A541C44A0FB02B3C5F33D
:1044F000130545F4801CC1F3130141F480180CFB33
:10450000023300FB083EA4F2F334810A930A41EA25
:104510008C5143EA88530194A1FB03474FEA9C2541
:1045200005FB03734FEA982601FB06373D05260578
:1045300045EA1435BBEB06016EEB0503850E920EC2
:1045400045EA8C1542EA8812A5FB0206261E67EB97
:1045500000070C0D44EA0334A41947EB1350C1F3D0
:1045600013064FF0000319464FEA033343EA16538C
:1045700043EA0403019CE5FB0201A4F10C0402944C
:10458000009C4FEA0632CDE900A400F08BF9A4E7C5
:104590002DE9F04D81EA030404F0004B21F00047BF
:1045A00014464FF0000A23F0004150EA070220D0E1
:1045B00054EA01021DD0C1F30A550246C1F31300AB
:1045C000C7F30A56C7F3130340F4801143F4801372
:1045D000A6EB0508101BD64608F2FD3873EB010068
:1045E00002D308F1010801E092185B41B8F1000F15
:1045F00003DA00200146BDE8F08D00204FF480155D
:10460000064607460EE0B2EB040C73EB010C04D334
:10461000121B064363EB01032F436D084FEA300082
:1046200092185B4150EA050CEDD152EA030012D01A
:1046300082EA040083EA0105284303D100224FF0F7
:10464000004308E0101B8B4102D20122002302E04C
:104650006FF0010253101AEB060047EB085110EB04
:104660000A0041EB0B01BDE8F04D00F00EB99623B6
:104670000022114600F0DCB80EB540F23341029141
:104680000021CDE900110A460B4600F00BF903B0FA
:1046900000BDC1F30A52C1F3130140F2FF3341F4EC
:1046A00080119A4201DA0020704740F233439A4267
:1046B000A2F2334202DC524200F03BB89040704715
:1046C00000F0004230F000400DD0C10D01F56071E6
:1046D00042EA01510022C0F31600520742EAD0021A
:1046E000400711437047002001467047002801DB56
:1046F000C0F10040002901DBC1F100418142704757
:10470000002801DBC0F10040002901DBC1F10041BC
:1047100088427047202A04DB203A00FA02F1002088
:1047200070479140C2F1200320FA03F319439040EF
:104730007047202A04DB203A21FA02F0002170475A
:1047400021FA02F3D040C2F12002914008431946F9
:104750007047202A06DBCB17203A41FA02F043EAE1
:10476000E071704741FA02F3D040C2F1200291405B
:10477000084319467047000000487047ECE70008FE
:104780002DE9F05F8246007800278B4615460AF136
:104790000104B946302801D09DB113E014F8010B93
:1047A0000127782803D0582801D045B10AE00DB17F
:1047B000102D07D10027102514F8010B02E0082561
:1047C00000E00A250026B0460EE005FB080005FBC8
:1047D00006F1012701EB10461FFA80F8B6F5803F7D
:1047E00000D3B94614F8010B294600F0BFF80028A1
:1047F000EBDABBF1000F05D00FB1641E00E05446A8
:10480000CBF80040B9F1000F06D005F033FE0221CD
:104810000160C81EBDE8F09F48EA0640FAE700299B
:10482000A8BF7047401C490008BF20F00100704736
:1048300010B4B0FA80FC00FA0CF050EA010404BF96
:1048400010BC704749B1CCF1200421FA04F411FAEC
:104850000CF118BF012121430843A3EB0C01CB1D30
:104860000106000A002BBEBF002010BC704700EB01
:10487000C35010440029A4BF10BC7047401C49001D
:1048800008BF20F0010010BC704710B5002B08DAFB
:10489000401C41F1000192185B411A4301D120F004
:1048A000010010BD2DE9F04D92469B4611B1B1FAC1
:1048B00081F202E0B0FA80F220329046FFF72AFF40
:1048C00006460F4640EA0A0041EA0B0152465B46A3
:1048D000084303D130463946BDE8F08D194652EA07
:1048E000010015D0C8F140025046FFF722FF0446F0
:1048F0000D46504659464246FFF70CFF084301D08B
:10490000012000E00020044345EAE07526432F43E0
:104910000A984FEAD625A0EB08000A304FEA465322
:104920004FF0000245EA47554FEAD72402D5002050
:104930000146D1E7010550196141DDE9084500193B
:104940006941BDE8F04DA0E7064C074D06E0E06880
:1049500040F0010394E8070098471034AC42F6D3C6
:10496000FFF7C8FBC0E80008E0E800083A2800D2DA
:10497000303820F02002412A01D3A2F137008842CA
:1049800001D34FF0FF30704770B501EB020410F80F
:10499000015B15F0070301D110F8013B2A1106D184
:1049A00010F8012B03E010F8016B01F8016B5B1E9E
:1049B000F9D12B0705D40023521E0FD401F8013B77
:1049C000FAE710F8013B02F10202A1EB030303E056
:1049D00013F8015B01F8015B521EF9D5A142D6D351
:1049E000002070BD30B587B072B602F036FC04F01E
:1049F00065FB04F0A7FB01213D2003F08DF825485D
:104A00004168254A1143416005F042FC4FF41650BD
:104A100005F038F862B600F091F802A803F0FCF84F
:104A20001E480699B1FBF0F50599B1FBF0F4049925
:104A3000CDE90045B1FBF0F30399B1FBF0F2029927
:104A4000B1FBF0F1164805F0F1FC16A318A21BA16A
:104A50001DA005F0EBFC09F031F901F051FA02F06C
:104A6000B7FE03F02FFD00F0A5FA01F0BBFE08F041
:104A7000B1FA02F09BF9082002F066F9002118A2B1
:104A8000084602F02BF81AA20021012002F026F8B5
:104A900007B030BD000001400080000240420F001E
:104AA0005CDD000831393A31313A3437000000001A
:104AB0004A756C203130203230313700415050205F
:104AC00056312E3132380000617070207665727375
:104AD000696F6E3A2025732025732025730D0A0017
:104AE00073656E736F7220696E69742E2E2E0000CE
:104AF000706C6561736520776169742E2E2E0000DD
:104B000010B5040005D0012C03D0962102A005F0B9
:104B1000E7FF0948046010BD2E2E5C4C696272618B
:104B200072795C7372635C73746D333266313078A2
:104B30005F626B702E63000000860D4210B504F0BA
:104B400028FB0549087008B104A100E006A1BDE8F2
:104B5000104009A005F06ABC2400002042696745A6
:104B60006E6469616E0000004C6974746C65456E1A
:104B70006469616E00000000537973206973202519
:104B8000730A000010B578B14FF48054012805D0A5
:104B900002280FD11021012004F03EF82146BDE883
:104BA0001040022003F0F0BF1021BDE810400120AA
:104BB00004F032B810BDFEE7C1B2000A40EA01209D
:104BC0007047000070B5614B614C00205988A4F11A
:104BD000400202E0155C2554401C8842FAD35C4830
:104BE000626820301F294260A268826007D00220DC
:104BF000FFF7C8FF00202060607B1A2221E0E17BE4
:104C0000282901D02A290AD1D4F81100227D00BA1E
:104C100020F0FF0010435860E08A40BA98604D4A87
:104C20002068904252D14C4A607B1268904203D86F
:104C3000A27B0AB1102A0DD90220FFF7A3FF607BE7
:104C40002422052104F078F8BDE8704000210120FD
:104C500004F052B8252958D01ADC152971D00DDC82
:104C600008296ED005DCB9B3032936D004292DD12B
:104C700063E00A2965D0122928D132E01A390A29BD
:104C800024D2DFE801F03632235E32232323233E91
:104C90008A2956D00EDC552953D006DC28293CD071
:104CA0002A2940D02F2911D143E05A2925D088291B
:104CB0000CD146E0A82944D004DC8F2941D09E299C
:104CC00004D13EE0AA293CD0AF293AD00220FFF718
:104CD00059FF607B2022B4E71BE0BDE8704003F081
:104CE00077BBBDE8704003F091BABDE8704003F0B7
:104CF0007BBBBDE8704003F0C3BABDE8704003F071
:104D0000B9BABDE8704003F02DBBBDE8704003F0B8
:104D1000F1BABDE8704003F06BBBD3E90112BDE806
:104D2000704003F0B3BAD3E90112BDE8704003F05C
:104D300095BBBDE8704003F077BBBDE8704003F061
:104D40004DBABDE8704003F07BBA0000E0010020DE
:104D50003837002055534243440200202DE9F041EA
:104D6000184D174C174F4435174E23E047F6FF7088
:104D70002860308800F00F00207007EB8000016889
:104D800089B20A0407D5016840F68F7289B21140D2
:104D900001600E4808E009060CD5016848F60F725C
:104DA00089B2114001600A48217800EB810050F877
:104DB000040C8047286830800004D7D4BDE8F08117
:104DC000E0020020005C004040020020240200209D
:104DD000080200202DE9F05F4BF6BF7848F2800909
:104DE000454F40F68F7A454E454D48F60F7B27E0FC
:104DF000088810F00F0030702BD005EB80000168A0
:104E00008CB221040BD5016889B201EA0A01016064
:104E10003C48317800EB810050F8040C80472006B4
:104E20000ED5307805EB8000016889B201EA0B01EC
:104E300001603548317800EB810050F8040C804760
:104E40002F4844300068314908800004D0D4BDE8C0
:104E5000F09F28683880388800F0300078803888E3
:104E600000F440503880286880B200EA080080F4DE
:104E7000005080F0200040EA090028600888C00641
:104E80000028286880B217DB00EA0B00286001F0D8
:104E9000F1FB24E03988890401D580F40050798839
:104EA000C90626D47988890601D580F0200080B211
:104EB00040EA09002860CAE7010507D5286880B2E2
:104EC00000EA0A00286003F03DFF08E00004B7D5BF
:104ED000286880B200EA0A00286002F045FB2868D2
:104EE000398880B200EA0800C904D3D580F4805024
:104EF000D0E780F01000D5E7F2020020E0020020A9
:104F0000005C004024020020080200204002002033
:104F100070B500240C4A04E032F81030401C1C44E8
:104F2000C0B21228F8D30846FFF7A6FB05460E4686
:104F30002046FFF7A1FB2A463346FFF729FBFFF780
:104F4000A8FB80B270BD00006C130020074901EB84
:104F500080000168490408D5016848F68F7289B25B
:104F600011404CF28002114301607047005C004028
:104F7000074901EB80000168490608D5016848F639
:104F80008F7289B2114048F2C0021143016070472C
:104F9000005C0040064901EB8000016848F68F6222
:104FA00089B2114048F2800211430160704700004D
:104FB000005C00401CB50121082002F0ADFD02207C
:104FC000ADF8040001208DF8060010208DF80700D0
:104FD00001A90E4800F096FF0024234622460C4902
:104FE0000C48009402F08AFA0A4800231A460A493B
:104FF0001C30009402F082FA064800224FF4FA7145
:105000001C3008F047F900F08FF81CBD000C01407F
:1050100029970008C0260020559900082DE9F0477F
:105020000025DFF8988082462E464FF6FF794846E5
:10503000424600E000BF1168890704D40100A0F1D6
:10504000010080B2F6D118B14FF47A7400270CE059
:105050002C211BA005F0EAF90320BDE8F0870A2007
:1050600005F061FF07F10107BFB2D8F80000800723
:1050700004D52000A4F10104A4B2F0D13CB168062B
:10508000050E381F052808D245F001050DE0352131
:1050900010A005F0CBF90420DFE7082F05D339462F
:1050A00011A005F0C3F90520D7E7761CF6B2082E4B
:1050B000BDD38AF800500020CFE70000080C014063
:1050C0006C696E65203D2025642C2050442065725B
:1050D000720A00006C696E65203D2025642C20500A
:1050E00055206572720A0000646874206269742039
:1050F00065727220636F756E74203D2025640A000E
:1051000008B50221ADF8001001218DF8021038B168
:1051100010208DF803006946024800F0F3FE08BD38
:105120004820F6E7000C014010B50D4CA07800288F
:1051300014D12070072060700120FFF7E1FF0948BB
:10514000016841F002010160074802F0FDF9002208
:105150000121054808F09EF80120A07010BD000054
:1051600070000020100C0140C02600202DE9F05FE7
:10517000DFF89C90DFF89C804FF0300AD9F80010DF
:1051800001F11004088A0E7A08B9042E04D0A5880B
:10519000A84216D8042615E01F4A1078012804D02A
:1051A00007261021A8F800102CE01C4900200968EF
:1051B0001B4B89B203EB41014860A8F800A01070B6
:1051C00020E00226854200D90546A8B2A16807461C
:1051D00088478346002001F0DBF801463A465846EE
:1051E00005F08AF83946002003F008FD2088401BAE
:1051F0002080608828446080A8F800A009494FF406
:1052000040500880D9F800000672BDE8F09F000009
:10521000E4020020F4020020DC020020505C004088
:1052200000600040F20200202DE9F047234EDFF835
:1052300090904FF03008346834F8100FA168B1B185
:1052400008B3A588854200D90546A8B20746884715
:1052500082462088401B208060882844608000208F
:1052600001F06CF801463A46504602F04BFB2088AC
:1052700048B114494FF4405008800021084603F01B
:10528000BDFCA9F800802088A188884201D30320B2
:1052900001E020B1052031680872BDE8F08731686F
:1052A00006200872084900200968084A89B202EB02
:1052B00041014860A9F80080EFE70000E402002007
:1052C000F4020020F2020020505C00400060004028
:1052D0002DE9F0415C4C5D4D0926206800272968C6
:1052E0004278062A05D0AAB1082A4BD00A2A4ED005
:1052F00069E00278520666D18078012804D002283D
:1053000004D0032804D05EE0C96954E0096A52E081
:10531000496A50E04288A2BBC288022A53D102796E
:105320007ABB0278530601D1838833B102F07F0241
:10533000012A04D0022A0CD045E045493BE08A69A5
:10534000407900219047E0B92068807A0028F4D1A4
:1053500039E0417901F00F0001F070020B063D4980
:1053600051F8201003D5C1F30111090102E0C1F386
:1053700001310903384B1B78834224D90AB900292B
:10538000DBD120E0007840061DD1344913E00278DB
:1053900002F07F02012A16D1827AA2B1428892B924
:1053A000027982B9C288012A0DD18A694079002127
:1053B000904740B92A4931B1206847828161002075
:1053C0008847002006E029682068096940788847F6
:1053D000032808D021680A8AA2F57F43FF3B05D144
:1053E0000E72BDE8F08120680672FAE7022808D044
:1053F0003AB10878000620D5C888824205D90882CB
:1054000013E04FF008000872EBE70ED22868154B46
:1054100090F82C00824201D21F7006E0B2FBF0F43B
:1054200000FB142008B901201870286890F82C009F
:105430008882BDE8F041FFF799BE032008720A494F
:1054400000030880CDE70000E4020020E80200200D
:10545000058F0008005C0040B0020020998E000813
:10546000DD8E0008DC020020F2020020704701F00F
:1054700057BE01F095BE00002DE9F0410746884671
:1054800008F0D2F9214C0546B8F1000F35D03A0B9F
:1054900039461FA004F0CAFF4FF480562346324617
:1054A0003946284608F0DAF9642241462046FEF7DC
:1054B0006AFE5C21204603F061FEC243C4E9170284
:1054C00001461DA004F0B2FF32463946284608F0D6
:1054D00038F9234632463946284608F0D7FA23469B
:1054E00032463946284608F0B9F9D4E917121CA00B
:1054F00004F09CFF0020BDE8F0810F2322A20021D0
:1055000029A004F093FF0120F5E70000C016002059
:10551000777269746520666C617368416464722097
:105520003D20307825782C20736563746F72203DA0
:105530002025640A00000000773A20636865636BE9
:10554000203D20307825782C20636865636B496E98
:105550007665727365203D20307825780A0000005A
:10556000723A20636865636B203D20307825782C83
:1055700020636865636B496E7665727365203D20B4
:10558000307825780A0000002E2E5C44726976651A
:10559000725C7372635C463130585F466C6173684D
:1055A0005F49662E630000006572726F72203D20B5
:1055B00025642C2066696C65203D2025732C206CA9
:1055C000696E65203D2025640A0000002DE9F04148
:1055D0009CB000251A9501225E495F481B9506F094
:1055E0008BFC044601465DA004F020FF4FF480567A
:1055F0000D2C08D0002C16D021465CA004F016FF1C
:105600001CB0BDE8F08160A004F010FF324601211B
:10561000504806F0D7F9010001D062A0EEE769A07A
:1056200004F004FFECE76EA004F000FF40200090BF
:105630004848714B71A22021083000F035FB70B949
:105640006D4971A004F0F2FE6B49012201F1740072
:1056500006F082FC010012D071A004F0E7FE1BAA44
:105660001AA977A005F070FF0028C9D175A004F031
:10567000DDFEDDE91A127BA004F0D8FEC0E70024AD
:10568000199508F0D1F85C4F804674375A4819AB29
:1056900032467C49743006F077FD050020D1199818
:1056A000F0B1250332462946404608F04AF81998D9
:1056B000B04206D2734AC0F580511044CC22FEF7A6
:1056C00074FD704B32462946404608F0DFF9641CF1
:1056D000A4B22346FA686C48199904F0A7FED5E7EE
:1056E0004548743005F05AFF294668A0199A04F01D
:1056F0009DFE19980543B2D16CA004F097FE3E4878
:1057000006F042FE002822D06DA23B496EA004F0B4
:105710008DFE64216846FEF74FFDF8681190012068
:105720001590C01E169069464FF48020FFF7A4FE26
:10573000FA686BA0199904F079FE77A004F076FE60
:1057400040F6B83005F0E0FB00F0DEFF87E781A20D
:10575000DBE70000F602002084370020665F6D6FF3
:10576000756E74203D2025640A0000004661744671
:1057700073206D6F756E74206572726F72203D209C
:1057800025640D0A000000004661744673204572CE
:10579000726F722C20646F20466F726D61742E2EB2
:1057A0002E0D0A00466C617368204469736B2046B5
:1057B0006F726D6174204661696C6564203D2025BF
:1057C000640A0000466C617368204469736B20466C
:1057D0006F726D61742046696E69736820210A00DA
:1057E0004661744673206D6F756E742073756363C4
:1057F0006573730D0A000000B447002055706461A2
:1058000074652E62696E000066696E646564206668
:10581000696C652070617468203D2025730A000062
:1058200063616E2774206F70656E2066696C652CED
:10583000206572726F72203D2025640A000000000E
:1058400030000000726561642066617466732066D2
:10585000696C652073697A6520737563636573731A
:105860000D0A0000746F74616C203D20256C64206B
:105870004B422C2066726565203D20256C64204BD0
:10588000420A0000C0160020ACE1000872656164A5
:105890002066696C653A20726573203D2025642C72
:1058A000206272203D2025640D0A0000726561644B
:1058B0002066696C6520616C6C20646F6E650A00FF
:1058C0006661696C6564000064656C65746520667A
:1058D000696C6520696E2025732025730A0000001D
:1058E000726561642066696C6520737563636573B6
:1058F000732C206C656E203D2025642C2066696C1D
:10590000655F73697A65203D20256C642042797457
:1059100065730D0A0000000077726974652073706A
:105920006920666C61736820646F6E652C207265F7
:1059300061647920746F206A756D7020746F2074B3
:10594000686520626F6F746C6F616465722E2E2EB5
:105950000A0000006F6B0000F0B5C3B0002532A153
:10596000354800F0D5F801282DD0334C4FF480761F
:10597000E168B14200D996392F4805F094FE0746F8
:1059800001462EA004F052FDD4E9022339462FA08F
:1059900004F04CFD9FB9002041904090314668468C
:1059A000FEF70AFC41AB32466946234806F0ECFBA1
:1059B00002000AD04FF4CF712FA004F037FD1E482B
:1059C00005F0ECFD284643B0F0BD694631A004F077
:1059D0002DFD5B216846FEF725FC040021D05D21EA
:1059E000FEF720FCC8B10A2240A9601CFEF72AFC81
:1059F00001000CD1409A601C824208D1631C28A08F
:105A000004F014FD0C4805F0C9FD0020DBE7491C3B
:105A10000D4631A004F00AFDD1E737A004F006FDE1
:105A2000CDE738A0FAE7000073656E736F725F64AC
:105A30006174612E7478740028480020312C207223
:105A40006573203D2025640A00000000665F6C73CA
:105A500065656B20726573203D2025642C2066707F
:105A60007472203D20256C642C206673697A652051
:105A70003D20256C640A00006C696E65203D202580
:105A8000642072656164206661696C6564203D20F4
:105A900025640A00627566203D2025730A00000017
:105AA000636F6E76657274206661696C65642C2024
:105AB000696E646578203D2025642C2070456E64F5
:105AC000203D20307825782C202670315B315D20F8
:105AD0003D20307825780A0068616420256C6420B8
:105AE0006974656D73206F662073656E736F7220C5
:105AF000646174610A0000007032206E756C6C0A7B
:105B0000000000007031206E756C6C0A000000000F
:105B1000F0B59BB006460F46402235496846FEF771
:105B200032FB0025694610A806F0E6FA040009D009
:105B300030A2694631A004F079FC052C04D08CB168
:105B40005D2349E031A2F4E7684605F07FFE0200DC
:105B5000694603D02EA004F069FC42E034A004F0B2
:105B600065FC012510A805F02CFD6846FEF752FBE8
:105B70002F220DF800206844401C40223946FEF7D1
:105B80003DFB13226946304606F0E6F90446C5B1EE
:105B900000201A9016486C38FEF73CFB1449024668
:105BA0001AAB6C39304606F043FC11483238FEF728
:105BB00031FB0F4902461AAB3239304606F038FC49
:105BC0000446304606F0A2FBF2686CB109A11EA0A3
:105BD00004F02CFC54B1702321A2214629A004F02A
:105BE00025FC01201BB0F0BD08A1F0E70020F9E77B
:105BF0006CE100086661696C656400006F70656E39
:105C0000206469722025732025730A006F6B0000E1
:105C10006372656174652064697220257320666112
:105C2000696C65642C20726573203D2025640A0030
:105C300063726561746520646972202573207375D1
:105C400063636573730A0000665F6F70656E20257D
:105C5000732C206673697A65203D2025640A000054
:105C60002E2E5C436F6D706F6E656E745C46617452
:105C700046735C7372635C66617466735F64656DC2
:105C80006F2E63006572726F72203D2025642C2098
:105C900066696C65203D2025732C206C696E65203B
:105CA0003D2025640A0000002DE9F04194B005462E
:105CB000254811903320129017461E46DDF8688063
:105CC000294601A806F018FA040026D02EE0119803
:105CD000007808B1119801E00DF135009DF83410FD
:105CE000C90604D519A004F0A1FB04241EE000900D
:105CF0002B461CA24146304604F0A8FB39463046EC
:105D0000FEF766FA28B1314618A004F08FFB002494
:105D100003E01DA004F08AFB04240BA901A806F0EF
:105D2000C9FA18B99DF835000028D0D101A805F0AE
:105D300048FC38B118A11AA004F078FB14B0204632
:105D4000BDE8F0811AA1F6E7F44700207363616EA5
:105D50002066696C65206661696C65642C206469E5
:105D600072730A0025732F25730D0A007365617223
:105D700063682066696C6520737563636573733A45
:105D80002025730A000000006E6F742066696E643F
:105D90002066696C650A00004661696C65640000F4
:105DA000636C6F73656469722025730A00000000DC
:105DB0004F4B000038B50D4601461348FFF7A8FECB
:105DC00001281FD0104C2046E16805F06CFCD4E996
:105DD000022301460DA004F029FB2846FEF71AFA1B
:105DE000044602466B462946074806F021FB054655
:105DF000054805F0D3FB224629460FA0009B04F07E
:105E000015FB002038BD000028480020665F6C7339
:105E100065656B20726573203D2025642C206670BB
:105E20007472203D20256C642C206673697A65208D
:105E30003D20256C640A0000665F777269746520F6
:105E4000726573203D2025642C206C656E203D20FA
:105E500025642C206277203D2025640A0000000084
:105E600010B50446102805D024B140F22F1106A029
:105E700004F036FE0D48016821F010010160016850
:105E80002143016010BD00002E2E5C4C69627261DE
:105E900072795C7372635C73746D3332663130781F
:105EA0005F666C6173682E63000000000020024092
:105EB00010B5040008D0012C06D0022C04D040F20A
:105EC000031105A004F00CFE0C49086800F038002E
:105ED0002043086010BD00002E2E5C4C6962726188
:105EE00072795C7372635C73746D333266313078CF
:105EF0005F666C6173682E63000000000020024042
:105F0000FFF764BB2DE9F0410446464800260D46E4
:105F1000844215D04448844212D0444884420FD071
:105F2000434884420CD04348844209D042488442CA
:105F300006D04248844203D0B22141A004F0D0FDF3
:105F4000E87888B104280FD028280DD048280BD035
:105F5000142809D0102807D01C2805D0182803D0F1
:105F6000B32137A004F0BCFD288818B9B42134A0AF
:105F700004F0B6FDE87800F00F07C0060CD5A8784D
:105F8000012807D0022805D0032803D0BB212CA06C
:105F900004F0A6FDA878074328884FF00F0C10F0F6
:105FA000FF0F4FF0010E1AD021682A880EFA06F072
:105FB000024082420FD1B2000CFA02F3994307FA71
:105FC00002F21143EA78282A02D0482A02D002E0DD
:105FD000606100E02061761C082EE6D321602888ED
:105FE000FF281DD96268002101F108030EFA03F0B1
:105FF0002B88034083420FD18E000CFA06F322EA6D
:10600000030307FA06F21A43EB78282B00D16061EC
:10601000EB78482B00D12061491C0829E4D3626049
:10602000BDE8F08100080140000C01400010014073
:106030000014014000180140001C014000200140F4
:106040002E2E5C4C6962726172795C7372635C7350
:10605000746D3332663130785F6770696F2E63001C
:1060600070B50546274800260C46854216D02648BE
:10607000854213D02548854210D0254885420DD051
:10608000244885420AD02448854207D023488542C7
:1060900004D04FF48F7122A004F022FD012C2AD0ED
:1060A000022C28D0042C26D0082C24D0102C22D04E
:1060B000202C20D0402C1ED0802C1CD0B4F5807F0A
:1060C00019D0B4F5007F16D0B4F5806F13D0B4F5B5
:1060D000006F10D0B4F5805F0DD0B4F5005F0AD02A
:1060E000B4F5804F07D0B4F5004F04D040F21F1133
:1060F0000BA004F0F5FCA868204200D00126304631
:1061000070BD000000080140000C0140001001407B
:106110000014014000180140001C01400020014013
:106120002E2E5C4C6962726172795C7372635C736F
:10613000746D3332663130785F6770696F2E63003B
:1061400070B5044611480D46844216D0104884426A
:1061500013D01048844210D00F4884420DD00F480D
:1061600084420AD00E48844207D00E48844204D0AC
:1061700040F279110CA004F0B3FC25B94FF4BD71C5
:1061800009A004F0ADFC656170BD0000000801408D
:10619000000C0140001001400014014000180140B3
:1061A000001C0140002001402E2E5C4C696272618F
:1061B00072795C7372635C73746D333266313078FC
:1061C0005F6770696F2E630070B5044611480D4615
:1061D000844216D01048844213D01048844210D014
:1061E0000F4884420DD00F4884420AD00E488442A2
:1061F00007D00E48844204D040F269110CA004F08C
:106200006FFC25B94FF4B57109A004F069FC256154
:1062100070BD000000080140000C0140001001406A
:106220000014014000180140001C01400020014002
:106230002E2E5C4C6962726172795C7372635C735E
:10624000746D3332663130785F6770696F2E63002A
:1062500070B505462A480C461646854216D0294890
:10626000854213D02848854210D0284885420DD059
:10627000274885420AD02748854207D026488542CC
:1062800004D040F28D1125A004F02AFC012C2AD064
:10629000022C28D0042C26D0082C24D0102C22D05C
:1062A000202C20D0402C1ED0802C1CD0B4F5807F18
:1062B00019D0B4F5007F16D0B4F5806F13D0B4F5C3
:1062C000006F10D0B4F5805F0DD0B4F5005F0AD038
:1062D000B4F5804F07D0B4F5004F04D04FF4C77128
:1062E0000EA004F0FDFB46B1012E04D040F28F1148
:1062F0000AA004F0F5FB2C6170BD6C6170BD00005C
:1063000000080140000C0140001001400014014051
:1063100000180140001C0140002001402E2E5C4C62
:106320006962726172795C7372635C73746D33322B
:10633000663130785F6770696F2E630005490968C0
:1063400089B201EBC000044901EB4000806880B2D3
:1063500070470000505C004000600040054909683B
:1063600089B201EBC000044901EB4000C068C0F3F2
:1063700009007047505C004000600040034951F83C
:106380002000C0F30130000370470000005C0040B3
:106390000449096889B201EBC000034951F81000B3
:1063A00080B27047505C00400060004008B1044873
:1063B00070470449012009680882002070470000E6
:1063C00044020020E40200200A4810B50168001DC4
:1063D0000468001D006808180BD00822064900F068
:1063E00077F9054920460422BDE81040103100F03D
:1063F0006FB910BDE8F7FF1FEE01002010B50022B5
:10640000022901D2002010BD401C891E8BB2002140
:1064100004E0445C491C224492B289B29942F8D308
:10642000D043401CC0B210BD10B51F4910B10128A7
:106430001DD10CE04C8A00F079F900211BA208461E
:1064400000F04CFB204600F047F81AA20BE08C89C4
:1064500000F06CF9002115A2084600F03FFB204631
:1064600000F06FF815A20A21002000F037FB154854
:106470000178807802F0FDFF13A20321012000F0D3
:106480002DFB12A20721012000F028FB10A20C21F5
:10649000012000F023FB0F480078002803D0BDE85E
:1064A000104000F06DBC10BD300000204843484F44
:1064B00020000000206D672F6D3300002070706D8C
:1064C000202000007C0000202743000052482000CC
:1064D000250000005200002070B504460521002070
:1064E00000F002FA42F21070B4FBF0F100FB114030
:1064F0004FF47A75B0FBF5F03030C0B200F04CFAD2
:106500002E2000F049FAB4FBF5F005FB104064259D
:10651000B0FBF5F03030C0B200F03EFAB4FBF5F05D
:1065200005FB10400A25B0FBF5F0303000F034FADE
:10653000B4FBF5F005FB1040BDE87040303000F0D2
:106540002BBA70B504460521002000F0CDF942F2C7
:106550001070B4FBF0F100FB11404FF47A75B0FB02
:10656000F5F03030C0B200F017FA2E2000F014FA27
:10657000B4FBF5F005FB10406425B0FBF5F03030BE
:10658000C0B200F009FAB4FBF5F005FB10400A2593
:10659000B0FBF5F0303000F0FFF9B4FBF5F005FB8F
:1065A0001040BDE87040303000F0F6B90178FF29A6
:1065B0000CD141780C4A172909D0862906D102212D
:1065C0001171C178807801EB0020508270474179C9
:1065D000007901EB0020508101201071002211464A
:1065E000024806F057BE0000300000209013002043
:1065F00070B51C4C40F22551204603F025FB0028C5
:1066000026D0204603F00AFD174CC0B2E1790025E0
:10661000164EFF2903D117281BD0862819D0218AAE
:10662000402900D32582218A7054E071208A401CC1
:106630002082208A09280BD109210C48FFF7DEFEB1
:10664000317A884203D109210848FFF7AFFF25823C
:1066500070BD2582228AFF21B154218A491C2182E2
:10666000E1E700000048004030000020081400204E
:10667000FEE7000010B5134C2068017A022904D00F
:10668000042902D0062905D015E0FEF76FFD206829
:10669000007A11E04178052909D10178490606D12F
:1066A000C07802F01FFA08480068006A804707486F
:1066B000006880688047082021680872BDE81040A3
:1066C00001F04EB9E4020020EC020020E8020020B4
:1066D000F0B500230A2630274FF0370C1C460FE098
:1066E000B6EB107F02D907EB107501E00CEB1075CB
:1066F00001F8135001EB430500015B1C6C70DBB229
:106700009342EDD3F0BD000001F066FA72B6054881
:106710000168054A01F4E06111430160BFF3408F55
:10672000FEE700000CED00E00400FA0510B50120C2
:1067300000F0E2F8022004F0E7FB022000F0DCF8B1
:10674000BDE81040022004F0DFBB00002DE9F84353
:106750004FF40056ADF8006001208DF802001020C3
:10676000DFF878808DF8030069464046FFF7CAFBE2
:106770001B4F3411ADF8004069463846FFF7C2FBA5
:106780006510ADF8005069463846FFF7BBFBF020B6
:10679000ADF8000069463846FFF7B4FB0820ADF8B5
:1067A000000069463846FFF7ADFB08213846FFF781
:1067B000C7FC012000F024FA29463846FFF704FD03
:1067C00021463846FFF7BCFC31464046FFF7B8FC8F
:1067D000F0213846FFF7F8FCBDE8F88300100140CF
:1067E000000C014010B5FFF7B1FF1E2004F08CFB38
:1067F0003C4C002210212046FFF72AFD00222021D8
:106800002046FFF725FD012240212046FFF720FD0D
:10681000012280212046FFF71BFD00F0DBF90A2052
:1068200004F072FB002210212046FFF711FD002228
:1068300020212046FFF70CFD012240212046FFF7D2
:1068400007FD012280212046FFF702FD00F0C2F97A
:10685000962004F068FB002210212046FFF7F8FC88
:10686000002220212046FFF7F3FC01224021204690
:10687000FFF7EEFC012280212046FFF7E9FC00F043
:10688000A9F9002210212046FFF7E2FC0022202176
:106890002046FFF7DDFC012240212046FFF7D8FC0F
:1068A000002280212046FFF7D3FC00F093F90A2054
:1068B00004F02AFB282000F01FF80A2004F024FB33
:1068C000012000F019F80A2004F01EFB0C2000F053
:1068D00013F80A2004F018FBBDE81040062000F071
:1068E0000BB80000000C014001EB8010C0B240F07A
:1068F000800000F001B8000070B50446282803D0DD
:10690000382C01D000F058F94FF400512048FFF71F
:1069100017FC204D4FF400712846FFF711FCE209E7
:1069200010212846FFF794FCC4F38012202128464A
:10693000FFF78EFCC4F3401240212846FFF788FC85
:10694000C4F3001280212846FFF782FC00F042F9D0
:10695000C4F3C00210212846FFF77AFCC4F380027A
:1069600020212846FFF774FCC4F34002402128464A
:10697000FFF76EFCC4F3000280212846FFF768FC95
:1069800000F028F9BDE870402D2004F0CCBA0000DA
:1069900000100140000C01402DE9F041044600F0D8
:1069A0000BF9244E4FF4005529463046FFF70CFCF6
:1069B000214F29113846FFF7C3FBE2091021384661
:1069C000FFF746FCC4F3801220213846FFF740FC55
:1069D000C4F3401240213846FFF73AFCC4F30012DA
:1069E00080213846FFF734FC00F0F4F8C4F3C0020D
:1069F00010213846FFF72CFCC4F3800220213846D2
:106A0000FFF726FCC4F3400240213846FFF720FC84
:106A1000C4F3000280213846FFF71AFC00F0DAF8D0
:106A200029463046FFF78CFBBDE8F0412D2004F0ED
:106A30007ABA000000100140000C01402DE9FE4F21
:106A400082468846244900200A276C46B2FBF1F5AD
:106A500001FB1522B1FBF7F105F130062654401C6D
:106A6000C0B20A28F2D30025605D302803D16D1C26
:106A7000EDB20A2DF8D3C5F10A0010F0FF0001D1E4
:106A800009250120834215D3A3EB000909F0FF0774
:106A900041465046FFF728FF002604E02020FFF77C
:106AA0007BFF761CF6B2BE42F8D309EB080000F07B
:106AB000FF0802E0C01A2844C5B241465046FFF71D
:106AC00013FF04E0605DFFF767FF6D1CEDB20A2D58
:106AD000F8D3BDE8FE8F000000CA9A3B10B51446FB
:106AE000FFF702FF02E0641CFFF756FF2078002842
:106AF000F9D110BD38B50C4600218DF800106A465A
:106B0000214600F055FD05461048007818B19DF863
:106B1000000000F099F80E49C4EBC40042180021AF
:106B20000846FFF7DBFF03232A4607210020FFF773
:106B300085FF9DF800000649C0EBC000623901EBFB
:106B4000400200210120FFF7C9FF38BD520000209C
:106B5000FFDD000870B50D460446002110A208466E
:106B6000FFF7BCFF0323224606210020FFF766FF44
:106B70000DA20A210020FFF7B1FF0DA20021012084
:106B8000FFF7ACFF03232A4606210120FFF756FF3B
:106B9000BDE870400A2104A20120FFF79FBF00005A
:106BA000504D322E3520000075672F6D33000000E8
:106BB000504D31302020000010B54FF48071044852
:106BC000FFF7BEFABDE81040012000F019B8000040
:106BD000000C014070B5094D4FF4807421462846E1
:106BE000FFF7F2FA052004F09EF921462846FFF748
:106BF000A7FABDE87040052004F095B9000C0140EB
:106C000008B5F021ADF8001001218DF8021038B15F
:106C100010208DF8030069460248FFF773F908BD9C
:106C20004820F6E7000C014010B50446014602205A
:106C300000F066F82146002000F062F82146BDE829
:106C40001040012000F05CB811B581B0294800F077
:106C50007BFC9DF80420012100242748072A21D22B
:106C6000DFE802F004081313192137000020FFF7B2
:106C7000DBFF07E00021022000F042F80121084676
:106C800000F03EF8012100200AE00020FFF7CCFFD1
:106C90000121084604E00020FFF7C6FF0121022081
:106CA00000F02EF81CBD01700020FFF7BDFF012190
:106CB000084600F025F80121022000F021F8002309
:106CC00001AA0E490B48009400F018FC0022322162
:106CD0000CE001700120FFF7A7FF002301AA07497C
:106CE0000448009400F00AFC00220F21014806F03D
:106CF000D1FA1CBD48140020580000205D6E000829
:106D000058B10F4B012811D0022818D1012902D007
:106D1000002202210EE00122FBE7012904D000221B
:106D20004FF40041074806E00122F9E7012904D0A9
:106D3000002201211846FFF78BBA0122F9E77047BC
:106D4000001401400010014008B5002810D0094986
:106D5000488000200346024600900749074800F09B
:106D6000CDFB0022BDE808403221044806F092BA6B
:106D700008BD000058000020156E000864140020B3
:106D80000948418A502901D200200BE0418AC829D4
:106D900001D2022006E0408AB0F5FA7F01D2042039
:106DA00000E00620FFF750BF3000002038B5022079
:106DB000ADF8000010218DF80310134C8DF802007F
:106DC00069462046FFF79EF84FF40041ADF80010E9
:106DD00069460E48FFF796F80121ADF800106946A4
:106DE0002046FFF78FF8012000F09AFD002000F008
:106DF000FDFF0020FDF784FE002000F091FD002043
:106E0000FFF712FF38BD00000014014000100140E0
:106E10007047000010B50F4C607850B10020FFF7AC
:106E200003FF608868B1002232210B4806F032FA75
:106E30000AE00120FFF7F8FE608810B1401E608074
:106E4000EFE70020FFF7F0FE607880F0010060704F
:106E500010BD0000580000206414002070B50078B8
:106E600000250126134C052828460BD0FFF7DCFE31
:106E70002078C8B1257000220F21BDE870400E486F
:106E800006F008BAFFF7D0FE207818B1257000226E
:106E90003221F2E7012126700846FFF731FF012178
:106EA0000220FFF72DFFF2E726700120FFF7BCFE5E
:106EB000E1E70000580000204814002008B101203C
:106EC0007047084840F2BF310022016005494FF485
:106ED0008050091F086003480349001DC0E90012E3
:106EE000104670471C01002000F03B0010B508B1AF
:106EF000012010BD05F0F4FC80B210BD10B51146A4
:106F0000DDE9022308B1012010BD05F01FFD0020BE
:106F100010BD10B51146DDE9022308B1012010BDF6
:106F200005F038FD002010BD0D4900B509680A784C
:106F300002F07F02212A08D1FE2806D1488820B914
:106F4000888810B9C888012801D0022000BD0548F2
:106F5000886100204882FFF729FA002000BD000068
:106F6000E4020020AD630008014901F0A9BF000060
:106F700050020020014901F0A3BF00004802002098
:106F800005490968C978052901D900207047034AD5
:106F900002EBC10101F094BFE4020020880200204E
:106FA00009B9002800D00220704700000F4910B531
:106FB00009680A7802F07F02212A07D1FF2805D14B
:106FC000488818B9888808B9C88808B1022010BD57
:106FD0000120FDF7CDFF0220FDF7B8FF0549044869
:106FE000086005490020087010BD0000E402002080
:106FF0005553424338370020E001002070B52F4838
:107000000025304985722E480968C07948722846A3
:1070100001F060FD4FF40071002001F015FE202109
:10702000002001F0F9FD1821002001F07DFD264C23
:107030000020217801F088FD5821002001F0CEFDCC
:107040000020FDF7A7FF002001F0B6FD0021012080
:1070500001F0FAFD9821012001F0C0FD202101205E
:1070600001F0DAFD0021012001F08EFD0021022057
:1070700001F0EAFDD821022001F056FD217802201E
:1070800001F062FD4FF44051022001F07DFD00212E
:10709000022001F0C1FD2178002001F055FD002003
:1070A00001F08AFD002001F01DFD08490120086063
:1070B0000849074808600848057070BD6837002017
:1070C0007EE00008E402002084020020D8020020B4
:1070D0005553424338370020E00100207047704785
:1070E00010B5FFF771F9054800240068847200F0BC
:1070F00059FC03F081F80248046010BDE40200204E
:10710000D8020020044805490068884202D00220C5
:10711000FDF738BD70470000383700205553424313
:107120001C4910B5087840F0100008701A4B187808
:10713000022819D04FF44054032824D0042801D049
:10714000052825D1002018702146022001F01CFDE1
:107150000220FFF713F9B0F5805F19D12146BDE891
:107160001040022001F010BD0C48C27B282A0FD12C
:107170000A7842F002020A70D3E90112407BBDE8AE
:10718000104001F083B80121002001F0B5FDE5E7D2
:1071900010BD000029010020E00100203837002048
:1071A00070B5194E307840F010003070174C022046
:1071B000A4F14001E57B03F02FF8154948800878D9
:1071C00018B1012805D0022006E0BDE87040FDF7A7
:1071D000F9BC2A2D0DD00120FDF7D4FC607B2422C0
:1071E000052101F0A9FDBDE870400021022001F059
:1071F00083BD307840F001003070091D607B06C906
:10720000BDE8704001F02AB929010020383700207C
:10721000E0010020094810B50068807A00280BD0F2
:107220000749052008600120FDF7A2FE0220FDF7B6
:107230008DFE04490020087010BD0000E40200200B
:10724000D8020020E00100200149042008607047B6
:10725000D8020020FEE7704770474FF48041480392
:1072600000F080B870B50446C0780F2528B1012819
:1072700003D075211EA003F033FC6078102803D3DF
:1072800076211BA003F02CFCA078102803D37721D3
:1072900017A003F025FCE07801214FF0E022E0B1D7
:1072A00019480068637800F4E060C0F5E060000A07
:1072B000C0F10406C540A078B340284018432378A5
:1072C000124D00015855207800F01F0399404009E5
:1072D00002EB8000C0F8001170BD207800F01F03A1
:1072E0009940400902EB8000C0F8801170BD000099
:1072F0002E2E5C4C6962726172795C7372635C6D94
:107300006973632E630000000CED00E000E400E010
:1073100010B50446B0F5E06F0FD0B4F5C06F0CD0D7
:10732000B4F5A06F09D0B4F5806F06D0B4F5407FF6
:1073300003D0632103A003F0D3FB084804430848AB
:10734000046010BD2E2E5C4C6962726172795C73B0
:1073500072635C6D6973632E630000000000FA05C0
:107360000CED00E070B504460D46B0F1005F06D0AC
:10737000B4F1006F03D09F2107A003F0B1FB0C48CC
:10738000854203D3A02104A003F0AAFB09480540CD
:1073900009482543056070BD2E2E5C4C6962726100
:1073A00072795C7372635C6D6973632E63000000B5
:1073B000FFFF0F0080FFFF1F08ED00E070B52F4DAD
:1073C0002868017844784A0606D001F07F00012839
:1073D00028D002282BD035E0092C06D0052C07D068
:1073E000032C0ED0012C14D02CE001F0D3FD28E0AA
:1073F000C1787F292ED8817861BB818851BB807A82
:1074000027E0C17801291DD18088D8B901F0DEFDBF
:1074100017E0C178012915D1818899B9407A800691
:107420000AD40FE00B2C0DD101F024FE09E0012C51
:1074300002D0032C03D005E001F0B8FC01E001F01C
:10744000D7FD58B10E4800684169E0B2884703286B
:1074500002D018B108200DE009200BE0094A0620EF
:1074600000211268084B92B203EB42025160074AB6
:10747000302111802968087270BD0000E4020020EC
:10748000E8020020505C004000600040F402002050
:1074900001484068704700001400002010B5044601
:1074A000FFF7F6FFA04201D3012010BD002010BD60
:1074B00010B50446FFF7ECFF204410BD0E4810B590
:1074C000046816E0FFF7E4FF2169884210D3207AB0
:1074D000C1070DD0810703D420F00100207204E021
:1074E000FFF7D6FFE16808442061D4E9051088471A
:1074F0006468002CE6D110BD2800002070B5044659
:10750000049EC360C4E905121D46FFF7C1FF28446D
:107510002061267270BD00000A4B19680A4608E017
:10752000814205D1087A40F00100087200207047BE
:1075300049680029F4D142601860017A41F00101E4
:107540000172F3E7280000200649096806E081423D
:1075500003D10A7A22F001020A7249680029F6D1A1
:10756000704700002800002010B50F4C2068007AFA
:10757000022811D004280FD0032804D0052802D0F7
:10758000072805D008E0FDF74FFE2068007A04E0E8
:1075900006480068C0688047082021680872BDE876
:1075A000104000F0DDB90000E4020020E8020020F5
:1075B0002DE9F74F05464FF4FA704FF00009854268
:1075C00000D90546DFF8F88001294FF000041ED1EC
:1075D00046462846FDF74BF8824604EB840006EB4E
:1075E00080075046B968FDF78BF80BD8F96850460C
:1075F000FDF77CF806D804EB840006EB8000866873
:10760000F8681DE0641CE4B2072CE6D352E046465D
:107610002846FDF72CF8824604EB840006EB800731
:1076200050463968FDF76CF840D879685046FDF748
:107630005DF83BD804EB840006EB800006687868B0
:10764000072C37D23146FCF787FE074604EB84014E
:1076500008EB8100418A008A091A1FFA81FAFDF7B6
:107660000BF8804689463846FDF72AF883460F46D0
:107670002846FCF7FCFF3146FCF76EFEFDF720F8CC
:1076800005460E465046FCF7F7FF2A463346FCF700
:107690000FFF5A463B46FCF77BFF42464B46FCF742
:1076A00061FEFCF7F6FF1FFA80F904E0641CE4B207
:1076B000072CB1D30024029804704846BDE8FE8F21
:1076C0000DDE000870B50446FFF730F81D4D5CB1C3
:1076D000012C11D0022C30D0032C31D1A8890121EA
:1076E000BDE87040FFF706BAFFF792FBA889E98969
:1076F000BDE87040FFF72EBAFFF78AFBE88A298BB6
:107700000844698B2D8A084484B200210EA20846E1
:10771000FFF7E4F905232A4608210020FFF78EF938
:107720000CA200210120FFF7D9F92246BDE87040E4
:10773000052308210120FFF781B9A8890021CFE79F
:1077400070BD00004C1300203E20302E33756D209C
:10775000000000003E20322E35756D200000000034
:1077600070B51A4C58B1012815D0022829D0032829
:107770002AD1A0890121BDE87040FFF7BBB9FFF70E
:1077800047FBA289032306210020FFF757F9E2896E
:107790000323062110E0FFF73BFBE08A218B08441E
:1077A000618B228A084485B2052308210020FFF757
:1077B00045F905232A460821BDE870400120FFF75E
:1077C0003DB9A0890021D6E770BD00004C13002010
:1077D00038B500242346224609490A480094FFF799
:1077E0008DFE0022C821074805F054FD05480023FE
:1077F0001A4605491C380094FFF780FE38BD00008A
:1078000039960008AC130020D5940008F0B5027832
:107810000023422A02D042784D2A30D1184F7A787C
:1078200012B17A78521E7A70C2788478DFF854C028
:1078300002EB0422ACF802200CF10406002200EB5B
:1078400042046579247905EB042426F81240521C81
:10785000D2B20E2AF3D3891C8AB2002104E0445C20
:10786000491C23449BB2C9B29142F8D3BCF81E0014
:10787000984201D1012038707878401C7870F0BDB2
:10788000300000204C13002070B51B4C40F22551F5
:10789000204602F0D9F9002825D0204602F0BEFB90
:1078A000164CC0B2A27900251549422A01D14D28B3
:1078B0001AD0E289402A00D3E581E2898854E2891E
:1078C000521CE281A071E08903280CD9C87889781C
:1078D000E28900EB012081B2081D904203D10848E3
:1078E000FFF794FFE58170BDE581E3894222CA5428
:1078F000E289521CE281E0E70038014030000020BC
:10790000C8130020054B521C520803EB410104D060
:1079100008C920F8023B521EFAD1704700600040AF
:1079200010B5040005D0012C03D07F2102A003F084
:10793000D7F80948046210BD2E2E5C4C6962726152
:1079400072795C7372635C73746D33326631307854
:107950005F7077722E63000000000E4270470000D7
:107960000C4810B590F82C10002001F0EDF80A48F2
:107970000068007A082802D0092809D006E00749E3
:107980004FF480500880064910200880002010BD68
:10799000012010BD58020020E4020020F202002065
:1079A000F402002010B5012002F0BCFB06480121C2
:1079B00001600021054A0160031D19604FF4E05188
:1079C00011800160002010BD405C0040F0020020EA
:1079D00070B51F4C40F225552946204602F034F977
:1079E000F8B1204602F01AFB1A4AC3B29088D18837
:1079F000401C00F03F0088420BD1A2F10C004188EE
:107A000009B90121418000222946204602F0A6F949
:107A100007E01068918843549088401C00F03F00B4
:107A2000908040F227752946204602F00DF9002883
:107A30000CD002F017FC02F041FC012806D12946C7
:107A40002046BDE87040012202F088B970BD0000F8
:107A5000004400406800002070B504460C480D4604
:107A6000044200D124B940F269410AA003F038F879
:107A7000104E4DB1012D04D040F26A4105A003F033
:107A80002FF8F069204301E0F069A043F06170BD78
:107A9000003601812E2E5C4C6962726172795C73D2
:107AA00072635C73746D3332663130785F72636316
:107AB0002E6300000010024070B504460C480D46CD
:107AC000044200D124B940F2C3410AA003F008F8EF
:107AD000104E4DB1012D04D040F2C44105A002F07A
:107AE000FFFF3069204301E03069A043306170BD81
:107AF000003601812E2E5C4C6962726172795C7372
:107B000072635C73746D3332663130785F726363B5
:107B10002E6300000010024070B504460C480D466C
:107B2000044200D124B940F24A410AA002F0D8FF31
:107B3000104E4DB1012D04D040F24B4105A002F092
:107B4000CFFFB069204301E0B069A043B06170BDD0
:107B50000200C0FF2E2E5C4C6962726172795C7308
:107B600072635C73746D3332663130785F72636355
:107B70002E6300000010024070B504460C480D460C
:107B8000044200D124B940F2A4410AA002F0A8FFA7
:107B9000104E4DB1012D04D040F2A54105A002F0D8
:107BA0009FFFF068204301E0F068A043F06070BDE3
:107BB0000200C0FF2E2E5C4C6962726172795C73A8
:107BC00072635C73746D3332663130785F726363F5
:107BD0002E630000001002400C48016841F00101D2
:107BE000016041680A4A114041600168094A114038
:107BF0000160016821F480210160416821F4FE01E7
:107C000041604FF41F018160704700000010024086
:107C10000000FFF8FFFFF6FE214A10B55168214B26
:107C200011F00C0103D0042901D0082901D0036010
:107C300012E05168536801F470114FF0020413F41C
:107C4000803F04EB914102D053689B0301D5164B52
:107C500000E0144B594301605168144B01F0F001EE
:107C600009095C5C0168E1404160546804F4E06427
:107C7000240A1C5D21FA04F48460546804F46054FE
:107C8000E40A1B5DD940C1605268084B02F44042CF
:107C9000920B1B1F9A5CB1FBF2F1016110BD000059
:107CA0000010024000127A0000093D00040000208C
:107CB00070B500250446212818D0312C16D0392C57
:107CC00014D0412C12D0612C10D07A2C0ED07B2CE9
:107CD0000CD07C2C0AD07D2C08D07E2C06D07F2C9A
:107CE00004D040F234510BA002F0FAFE60091149B1
:107CF00001280BD002280BD0486A04F01F01012292
:107D00008A40024200D00125284670BD0868F4E789
:107D1000086AF2E72E2E5C4C6962726172795C73BC
:107D200072635C73746D3332663130785F72636393
:107D30002E630000001002400248406800F00C0072
:107D4000704700000010024010B5040014D0802CD1
:107D500012D0902C10D0A02C0ED0B02C0CD0C02C57
:107D60000AD0D02C08D0E02C06D0F02C04D04FF450
:107D7000197105A002F0B4FE0B49486820F0F0002C
:107D80002043486010BD00002E2E5C4C6962726179
:107D900072795C7372635C73746D33326631307800
:107DA0005F7263632E6300000010024010B5040090
:107DB00006D0012C04D040F2651103A002F090FE21
:107DC0000948046010BD00002E2E5C4C696272618F
:107DD00072795C7372635C73746D333266313078C0
:107DE0005F7263632E6300000000424210B504001E
:107DF00008D0012C06D0042C04D04FF4507109A0F7
:107E000002F06EFE0F480021017000F82019012CCD
:107E100005D0042C02D1052180F8201010BD0121CD
:107E2000FAE700002E2E5C4C6962726172795C7315
:107E300072635C73746D3332663130785F72636382
:107E40002E6300002010024010B5040010D0B4F5DD
:107E5000806F0DD0B4F5A06F0AD0B4F5C06F07D015
:107E6000B4F5E06F04D040F27E2105A002F038FEA8
:107E70000B49486820F4E0602043486010BD0000D2
:107E80002E2E5C4C6962726172795C7372635C73F2
:107E9000746D3332663130785F7263632E63000035
:107EA0000010024010B5040010D0B4F5806F0DD062
:107EB000B4F5A06F0AD0B4F5C06F07D0B4F5E06F89
:107EC00004D04FF4267105A002F00AFE0B49486861
:107ED00020F4605040EAC400486010BD2E2E5C4C77
:107EE0006962726172795C7372635C73746D333250
:107EF000663130785F7263632E63000000100240C9
:107F000010B5040006D0012C04D04FF4CA7103A0B0
:107F100002F0E6FD0948046610BD00002E2E5C4C00
:107F20006962726172795C7372635C73746D33320F
:107F3000663130785F7263632E6300000000424256
:107F400070B505000C460AD0B5F5803F07D0B5F5F1
:107F5000403F04D040F27F111DA002F0C1FD74B378
:107F6000B4F5802F2BD0B4F5002F28D0B4F5402FD6
:107F700025D0B4F5801F22D0B4F5A01F1FD0B4F5D2
:107F8000C01F1CD0B4F5E01F19D0B4F5001F16D0E7
:107F9000B4F5101F13D0B4F5201F10D0B4F5301F66
:107FA0000DD0B4F5401F0AD0B4F5501F07D0B4F57A
:107FB000601F04D04FF4C07105A002F091FD0C4980
:107FC0004868254320F47C1005434D6070BD0000D7
:107FD0002E2E5C4C6962726172795C7372635C73A1
:107FE000746D3332663130785F7263632E630000E4
:107FF0000010024010B5040008D0012C06D0022C5D
:1080000004D04FF40E7105A002F06AFD0B494868D8
:1080100020F003002043486010BD00002E2E5C4C71
:108020006962726172795C7372635C73746D33320E
:10803000663130785F7263632E6300000010024087
:1080400010B5040006D0012C04D040F2DB2103A0BF
:1080500002F046FD0948046010BD00002E2E5C4C65
:108060006962726172795C7372635C73746D3332CE
:10807000663130785F7263632E630000D80042423D
:108080007CB5344D0446344E287810B101280CD00C
:1080900053E056F82400A1FB0013C5E90613A2FB28
:1080A0000010C5E908100120287068682B4958B1F4
:1080B000E86840220144812002F0C0F86868403836
:1080C0006860E86840301AE056F8240080B2CDE9D4
:1080D0000010D5E906232046FEF710FF10F0FF0F31
:1080E00003D0687840F00800687040221B49812066
:1080F00002F0A4F856F82400403868604020E86098
:108100004021012000F07AFD3021012000F084FDA3
:10811000D5E906014022821841F10000C5E9062098
:10812000D5E908026FF03F01411842F1FF30C5E97F
:1081300008100B48816840398160D5E9080108437F
:1081400007D16860E860C5E90600064A032111709E
:1081500028707CBD2801002018010020F82600208E
:1081600058370020E001002070B5184C1A4454F82C
:108170002040A2420DD92A2902D10220FCF702FD9B
:108180000020FCF7FFFC124A05212120917010739A
:1081900011E0114D0F4C55F82000A268584382425F
:1081A00011D02A290DD00020FCF7ECFC607B2422A2
:1081B000052100F0C1FD0021012000F09DFD0020FF
:1081C00070BD0220F0E7012070BD00001C010020FE
:1081D000B9010020383700201801002010B5FEF743
:1081E0006DFE00280ED008483A220221407B00F0A4
:1081F000A3FD0121084600F07FFDBDE810400020EE
:10820000FCF7C0BC10BD00003837002008490A7CCC
:10821000D20702D00748052105E030B10648C97CE5
:10822000242900D9242101F0C1BB0448F7E700004C
:1082300038370020600100208901002065010020FE
:1082400010B50B4CA06810B1207B000601D50020B2
:1082500000E00220FCF796FC607B2022052100F064
:108260006BFD0021BDE81040012000F045BD00007D
:10827000383700200821014801F098BBB1010020E7
:108280000421014801F092BBAD0100202DE9F0412D
:10829000164C80460D462078164630B1022823D170
:1082A0004046BDE8F041FFF7EBBE114F13460A46CA
:1082B000787B2821FFF758FF002815D0387B00066F
:1082C0004FF0020003D5207032462946E8E7FCF75C
:1082D00059FC787B2422052100F02EFDBDE8F041F9
:1082E0000121084600F008BDBDE8F081E001002052
:1082F0003837002010B50446FEF7E0FD70B1154890
:108300003A220221407B00F017FD0121084600F0CF
:10831000F3FCBDE810400020FCF734BC0E480F49C8
:1083200050F82420521E100E0870100C4870100ACD
:1083300088700B48CA7050F82400020E0A71020CB3
:108340004A71020A8A71C871BDE8104008210348C9
:1083500001F02CBB383700201C010020CB0100208D
:108360001801002010B50446FEF7A8FD70B11448AE
:108370003A220221407B00F0DFFC0121084600F098
:10838000BBFCBDE810400020FCF7FCBB0D480E49CB
:1083900050F82420100E0871100C4871100A8871D2
:1083A0000A48CA7150F82400020C4A72020A8A7202
:1083B000C872BDE810400C21034801F0F7BA000074
:1083C000383700201C010020D301002018010020B4
:1083D0000348C17C122900D91221024801F0E6BAF3
:1083E00038370020B90100200121002000F084BCB2
:1083F00010B5FEF763FD70B10A483A220221407BB6
:1084000000F09AFC0121084600F076FCBDE810401F
:108410000020FCF7B7BB0121BDE81040002000F0B0
:108420006BBC00003837002010B50B4CA06828B991
:10843000207C400702D40121002009E00220FCF743
:10844000A1FB607B2422052100F076FC00210120A5
:10845000BDE8104000F050BC3837002070B5174D13
:1084600013462A7832B1012A26D1BDE870401A4657
:1084700001F056BF124C0A462A21607BFFF774FEBA
:10848000002819D0207B000608D401202870BDE800
:1084900070404FF44051022000F076BB0020FCF702
:1084A00071FB607B2422052100F046FCBDE8704092
:1084B0000021012000F020BC70BD0000E001002080
:1084C0003837002010B516210648FBF775FEFDF77A
:1084D00043FA054948600146BDE8104003A001F099
:1084E000A5BF0000341300201C000020696E6974D1
:1084F0003A20746F74616C5F6974656D73203D2000
:10850000256C640A0000000010B502461948052ACF
:1085100017D2DFE802F00306090C0F000988418139
:1085200011E0098881810EE00988C1810BE009888A
:10853000018208E00B68C0F802304968C0F80610F4
:1085400001E0052A04D2817C012393401943817400
:10855000817C41F0120181741F2908D1FEF798FF38
:10856000014605A001F062FF0FA000F0D3F8002043
:1085700010BD000034130020726561647920746FAF
:10858000207769727465206461746120706F696E10
:108590007420746F2066696C652C207469636B208D
:1085A0003D20256C640A000073656E736F725F6412
:1085B0006174612E747874002DE9F04F0F461188B4
:1085C00087B0040015465BD0002F59D0002D57D03E
:1085D00020790DF10808267AE379A279A8E84D0000
:1085E000E278A078CDE90002DFF8A490384629A20D
:1085F000D9F8043001F02AFF86B228886421801B54
:108600001FFA80FE208AB0FBF1F201FB120CE08918
:108610000A21B0FBF1F201FB120202F1300A4FF421
:108620007A72B0FBF2F302FB1300B0FBF1F8A08901
:10863000B0FBF2F102FB11016089B0FBF2F302FB27
:10864000130B42F21073B0FBF3F403FB1400B0FB06
:10865000F2F3CDE900B10DF1080B3033ABE80015B2
:10866000B81916A2714601F0F1FED9F80410304491
:10867000491CC9F804102880002007B0BDE8F08F1D
:10868000542316A200211AA001F0D0FE0120F4E725
:108690001C0000205B253035645D202025303264CD
:1086A0002D253032642D2530326420253032643A55
:1086B000253032643A2530326420200025632E258F
:1086C0003033642020253364202020202533642E7D
:1086D0002563202025326425250D0A002E2E5C55A9
:1086E0007365725C7372635C534452522E63000074
:1086F0006572726F72203D2025642C2066696C655E
:10870000203D2025732C206C696E65203D2025645A
:108710000A0000002DE9F8431D4D80461D4E2888B3
:108720000027C0F58051ADF8001031186A4606F5F3
:108730008050FFF741FF04462888BDF80020104410
:1087400080B2C0F5805189B2288091421DD206F6D0
:10875000FE74022907D930444FF02002A1F1020132
:10876000FBF723FD00E005D14FF002020AA12046ED
:10877000FBF744FD07494046FDF71CFB04464FF458
:1087800080510448FBF718FD2F802046BDE8F88390
:108790001C000020340300200D0A000070B50446C0
:1087A0000F480D4684420AD00E48844207D00E4836
:1087B000844204D040F29A210CA002F091F955B104
:1087C000012D04D040F29B2108A002F089F92088F5
:1087D00040F4005002E0208820F40050208070BD5A
:1087E0000030014000380040003C00402E2E5C4C20
:1087F0006962726172795C7372635C73746D333237
:10880000663130785F7370692E63000070B504467E
:108810000F480D4684420AD00E48844207D00E48C5
:10882000844204D04FF4D7710CA002F059F955B12D
:10883000012D04D040F2AF1108A002F051F92088B8
:1088400040F0400002E0208820F04000208070BD11
:108850000030014000380040003C00402E2E5C4CAF
:108860006962726172795C7372635C73746D3332C6
:10887000663130785F7370692E6300002DE9F04136
:10888000174D184E184F0446A84207D0B44205D0E1
:10889000BC4203D07A2115A002F022F9AC420AD1E1
:1088A00001210C032046FFF767F92046BDE8F0419F
:1088B0000021FFF761B9B44202D101218C0303E02A
:1088C000BC420AD10121CC032046FFF7F5F820462F
:1088D000BDE8F0410021FFF7EFB8BDE8F0810000EE
:1088E0000030014000380040003C00402E2E5C4C1F
:1088F0006962726172795C7372635C73746D333236
:10890000663130785F7370692E63000070B505467C
:10891000154800260C4685420AD01448854207D0E7
:108920001348854204D040F2023112A002F0D8F878
:10893000802C12D0402C10D0202C0ED0102C0CD01B
:10894000082C0AD0042C08D0022C06D0012C04D00C
:1089500040F2033107A002F0C3F82889204200D07A
:108960000126304670BD0000003001400038004054
:10897000003C00402E2E5C4C6962726172795C731F
:1089800072635C73746D3332663130785F73706913
:108990002E63000070B5054642480C46854209D05A
:1089A0004148854206D04148854203D0A32140A0DA
:1089B00002F096F8208860B1B0F5806F09D0B0F56C
:1089C000004F06D0B0F5404F03D0A62138A002F0EA
:1089D00087F86088B0F5827F04D018B1A72134A051
:1089E00002F07EF8A088B0F5006F04D018B1A8217D
:1089F0002FA002F075F8E08828B1022803D0A92141
:108A00002BA002F06DF8208928B1012803D0AA21FB
:108A100027A002F065F86089B0F5007F04D018B196
:108A2000AB2123A002F05CF8A08988B108280FD000
:108A300010280DD018280BD0202809D0282807D0BE
:108A4000302805D0382803D0AC2119A002F048F80E
:108A5000E08928B1802803D0AD2115A002F040F8AC
:108A6000208A18B9AE2112A002F03AF8288821888D
:108A70006288E3881143A28800F441501A431143ED
:108A80002289114362891143A2891143E28911436A
:108A900001432980A88B20F40060A883208A2882C3
:108AA00070BD00000030014000380040003C004034
:108AB0002E2E5C4C6962726172795C7372635C73B6
:108AC000746D3332663130785F7370692E630000E5
:108AD00070470000024920F007000860704700005E
:108AE000505C0040F0B50E490E4E48F68F770D7879
:108AF000002148F2800C0AE0CAB206EB82031C682F
:108B0000A4B23C40144344EA0C041C60491CA94232
:108B1000F2D3044940F080004C310860F0BD000001
:108B2000B0020020005C0040054A21F001011268FB
:108B300092B202EBC000034A02EB40008160704732
:108B4000505C0040006000400D4A12683E2992B21D
:108B500002EBC0000B4A02EB400209D94809C906E2
:108B600001D1401E80B24FF4004141EA802005E06F
:108B70004808C90701D0401C80B2800210607047CD
:108B8000505C00400C6000400A4A02EB8002106812
:108B90004BF68F7380B200EA0300CB0401D580F45A
:108BA0008050890401D580F4005048F280010843C8
:108BB00010607047005C0040074901EB80000168CD
:108BC0004BF68F7289B2114081F4405148F2800215
:108BD0001143016070470000005C0040054A21F02D
:108BE0000101126892B202EBC000034A42F8101071
:108BF00070470000505C004000600040044A12686A
:108C000092B202EBC000034A02EB400041607047A1
:108C1000505C0040006000400A4A02EB800210688D
:108C200048F6BF7380B200EA0300CB0601D580F09E
:108C30001000890601D580F0200048F28001084329
:108C400010607047005C0040054A02EB800002683B
:108C500048F68F1392B21A400A4302607047000030
:108C6000005C0040224900200A6842F480320A6019
:108C70004FF4A0630A6800F1010012F4003F01D133
:108C80009842F7D10868800330D51A48026842F04C
:108C900010020260026822F003020260026842F0E1
:108CA000020202604868486048684860486840F4CA
:108CB00080604860486820F47C104860486840F450
:108CC000E8104860086840F080700860086880011B
:108CD000FCD5486820F003004860486840F0020076
:108CE00048604868C0F381000228FAD1704700004C
:108CF000001002400020024010B50D4A0C460B49FE
:108D0000116010730D220A49812001F097FA094879
:108D10000521002C017007D0042101703021BDE82D
:108D200010400120FFF778BF10BD0000555342539B
:108D300058370020E001002001488170027370471D
:108D4000B901002070B516480068174D81B215486A
:108D500000EB4101896889B200EB41042868017A7F
:108D600009290FD02178017061784170A088FBF744
:108D700023FF296848802089FBF71EFF2968888027
:108D8000A089C880286801210172C08828B1FCF739
:108D90009FFABDE87040FEF7E3BDFEF70FFBF8E772
:108DA000505C004000600040E40200202DE9F041EA
:108DB00034480168087810F07F0002D0022805D0FE
:108DC0005EE0487A00F0DF00487247E048880028FB
:108DD00056D10879002853D14A792C4D22F08000D1
:108DE0001306294C55F8203003D5C3F301131B019A
:108DF00002E0C3F301331B032678044686423FD9C1
:108E00007BB3897A69B311060ED555F82010C1F3EA
:108E1000011101291ED1E0B20446FCF7A9F8302166
:108E20002046FFF7F9FE15E005EB80042168C1F349
:108E3000013101290ED14BF68F7648F2800788B1B7
:108E4000C0B2FCF783F8206880B2304080F4405014
:108E5000384320600E480068406980470020BDE824
:108E6000F0810DE00B4890F82C100020FFF76CFE0D
:108E7000286880B2304080F4405038432860E9E7E9
:108E80000220ECE7E4020020B0020020005C004079
:108E9000EC0200205802002010B5074C30B1074802
:108EA00000680068804720680A3010BD21680120F2
:108EB0000882002010BD0000E4020020EC02002027
:108EC000054A13685A8A10B10868104470478888A8
:108ED000801A188200207047E402002010B5074C69
:108EE00030B1074800688068804720680C3010BDAA
:108EF000216801200882002010BD0000E40200204B
:108F0000EC0200201F4910B5096860B11E4800221C
:108F100002800A7853060AD002F07F02012A16D096
:108F2000022A16D001E002200882002010BD497AF2
:108F30008A06027802D542F0020201E002F0FD0248
:108F400049060270D1B210D401F0FE010FE00E48C4
:108F500010BD4A7902F00F0113060C4A52F8211095
:108F600007D5C1F3011106E0017841F0010101705C
:108F700003E0C1F301310129F6D00548006800691A
:108F80008047E4E7E4020020DE020020005C0040AD
:108F9000EC0200200A4810B500680A4AC1785278ED
:108FA000914203D882780AB982880AB1022010BDA2
:108FB00081720548006840688047002010BD0000AD
:108FC000E4020020B0020020EC020020064810B5A8
:108FD0000068417A41F02001417204480068C0698C
:108FE0008047002010BD0000E4020020EC020020B9
:108FF00070B51C4802681C48517921F0800500EBCF
:1090000085000B06036821F0800403D5C3F3011328
:109010001B0102E0C3F301331B03144D2D78A5425D
:1090200011D954887CB973B1927A62B109060029CA
:10903000016848F2800289B207DA48F6BF73194026
:1090400081F0100106E0022070BD4BF68F731940CD
:1090500081F48051114301600548006880698047B0
:10906000002070BDE4020020005C0040B00200203F
:10907000EC02002010B50E4C0E4A20681268C17830
:1090800092694079904721688A7A22B118B90879A3
:1090900008B9887808B1022010BD07480068C06888
:1090A000804720684179C172C1780173002010BDEA
:1090B000E4020020E8020020EC02002010B5FEF7D8
:1090C0008BFD0120FEF772FE2120FEF7F1FD002846
:1090D000FAD01020FCF7C4FE0220FCF7E9FE0020C5
:1090E000FEF732FE0020FEF7DDFE4FF48060FEF753
:1090F000ABFE4FF420110020FEF722FF0120FEF707
:10910000FFFE3920FEF7D4FD0028FAD00220FEF73A
:1091100071FFFEF711FE0828FBD1034901480860E2
:1091200010BD0000006CDC0284000020AFF3008062
:1091300003484168491C41600121017070470000EB
:10914000140000200B4864210068B0FBF1F0B0F17E
:10915000807F0DD220F07F414FF0E020491E416119
:10916000054AF021117000218161072101617047DA
:10917000FEE700008400002023ED00E0034610B568
:109180000020024602E09C5C521C20448A42FAD332
:1091900010BD3420122801D00020704701207047F4
:1091A0000F4810B5016841F00101016041680D4AA6
:1091B0001140416001680C4A11400160016821F4CE
:1091C00080210160416821F4FE0141604FF41F01DC
:1091D0008160FFF747FD05494FF00060086010BD52
:1091E000001002400000FFF8FFFFF6FE08ED00E06F
:1091F00070B5044624480D46844234D0B4F1804F03
:1092000031D0224884422ED0214884422BD021489C
:10921000844228D02048844225D02048844222D04D
:109220001F4884421FD01F4884421CD01E488442DD
:1092300019D01E48844216D01D48844213D01D48C0
:10924000844210D01C4884420DD01C4884420AD06D
:109250001B48844207D01B48844204D040F2293185
:1092600019A001F03DFC55B1012D04D040F22A3186
:1092700015A001F035FC208840F0010002E02088B4
:1092800020F00100208070BD002C0140000400404F
:1092900000080040000C0040001000400014004096
:1092A00000340140004C0140005001400054014096
:1092B00000180040001C0040002000400040014019
:1092C00000440140004801402E2E5C4C69627261EE
:1092D00072795C7372635C73746D333266313078AB
:1092E0005F74696D2E6300002DE9F05F444FDFF875
:1092F0001481DFF81491DFF814A1DFF814B1454EA2
:1093000004460D46B8422ED0B4F1804F2BD04445D0
:1093100029D04C4527D0544525D05C4523D03E4824
:10932000844220D0B4421ED03C4884421BD03C48EA
:10933000844218D03B48844215D03B48844212D026
:109340003A4884420FD03A4884420CD0394884428B
:1093500009D03948844206D03848844203D0E721F6
:1093600037A001F0BDFB688858B1102809D020282B
:1093700007D0402805D0602803D0E82130A001F0B4
:10938000AFFBE88848B1B0F5807F06D0B0F5007F2C
:1093900003D0E9212AA001F0A3FB2088BC420AD017
:1093A000B44208D0B4F1804F05D0444503D04C45B9
:1093B00001D0544503D120F07001688808435C4512
:1093C00006D015498C4203D020F44071E888084348
:1093D0002080A888A08528882085BC420AD0B44275
:1093E00008D01448844205D01348844202D0134860
:1093F000844201D1287A20860120A082BDE8F09F16
:10940000002C01400004004000080040000C004017
:10941000001000400034014000140040004C0140A6
:10942000005001400054014000180040001C004062
:10943000002000400040014000440140004801403D
:109440002E2E5C4C6962726172795C7372635C731C
:10945000746D3332663130785F74696D2E6300004D
:109460004FF6FF71818000210180C180418001722F
:1094700070472DE9F04104460E4600210120FDF71A
:1094800033FA6427B4FBF7F007FB10400A25B0FB62
:10949000F5F03030FDF780FAB4FBF5F005FB104035
:1094A0003030FDF779FA0A210120FDF71DFAB6FBED
:1094B000F7F007FB1060B0FBF5F03030FDF76CFA09
:1094C000B6FBF5F005FB1060BDE8F0413030FDF76C
:1094D00063BA00002DE9F05FFDF7DAFF6421B0FB0D
:1094E000F1F73E4C6589DFF8F88098F8000030B15C
:1094F000FDF7CEFF628901463AA000F097FF41498F
:10950000012031F8102001EB400323F8022C401C0D
:10951000C0B21228F5D34D84A078401CA070E0782A
:10952000012600250028DFF8E090DFF8E0B0A07801
:109530004FF0663A1BD0082813D903210F20FBF700
:10954000E7FCA081A089FBF797F800224B46FAF7C9
:10955000AFFF52465B46FBF71BF8FBF79AF86082B9
:109560006671A07812282DD3E570A5702AE0032833
:1095700028D3782F02D203210F2001E012210020EE
:10958000FBF7C6FCA081A089412805D9A0894F28F6
:1095900002D8A0890F3804E0A0894F2802D9A089F9
:1095A0001938A081A089FBF767F800224B46FAF72B
:1095B0007FFF52465B46FAF7EBFFFBF76AF86082E3
:1095C000A570667198F8000020B1628AA18910A088
:1095D00000F02CFF25716581BDE8F09F3000002070
:1095E000530000207469636B203D20256C642C209F
:1095F0006E65775F707062203D2025642075672F4F
:109600006D330A006C13002000003E406666364051
:10961000617665725F707062203D2025642C206148
:109620007665725F6D617373203D202564207567D8
:109630002F6D330A0000000070B52C4C20780025F7
:1096400038B12570607A012810D003F0BDFCFEF718
:1096500087F86079002842D06571207A01280BD004
:1096600003F0B2FC70B1012813D10FE003F0ACFCA1
:10967000FEF728F86572ECE703F0A6FCFCF7D4FED1
:10968000257210E0608AFCF727FF02E0A089FCF752
:1096900058FF174801788078FFF7EBFE15480078EF
:1096A00008B1FDF76DFB6069FDF702FFB8B1FDF78A
:1096B000EFFE1149884212D9FDF7EAFE6421B0FBA2
:1096C000F1F2618A0DA000F0B1FE47F23050FDF7D3
:1096D000EFFE0649606112310020FEF715FFBDE87C
:1096E0007040002223210F4803F0D4BD3000002039
:1096F0007C00002052000020905F010073617665BD
:1097000020706D322E35203D2025642075672F6D29
:10971000332C207469636B203D20256C6420730A10
:1097200000000000AC1300202DE9F043664C89B026
:109730004FF001082078F0B1012870D1634E022764
:10974000277030684FF47A7940F0020030602720AB
:1097500001F0E9FB0020FBF7D3FC5C494FF6FF72F8
:10976000002510464FF0040C08390B689B0712D5F2
:10977000401EFAD210E0554884F80080001D0168B0
:1097800041F00201016009B00022BDE8F04302216E
:109790004F4803F07FBD20B10868800777D410469A
:1097A00003E084F801C088E000BF0B689B0702D487
:1097B000401EF9D200E040B184F801808DF81C50C1
:1097C000306840F00200306002E0032044E000BF57
:1097D0000868800702D5521EF9D201E0002AE0D0C5
:1097E00004A8FBF71BFC082608B1762304E003A8B5
:1097F000FBF714FC38B1782336A200213BA000F01F
:1098000015FE667059E006A8FBF708FC08B17A233C
:10981000F2E705A8FBF702FC10B17C23ECE74DE072
:1098200007A8FBF7FBFB08B17E23E5E79DF81030A6
:109830009DF80C009DF8186019189DF814703144BB
:1098400039449DF81C20C9B2914207D08DE8C1006F
:109850002F4800F0EBFD062060702EE06068FDF7F9
:109860001DFEC0B14846FDF723FE60602948007820
:1098700088B1FDF70DFE01469DF814209DF81800F3
:10988000CDE900029DF80C309DF8102000E018E0B2
:1098900021A000F0CBFD0C489DF810100C30017099
:1098A0009DF80C1041709DF8181081709DF81410EF
:1098B000C1709DF81C1001716570A57009B0BDE8FC
:1098C000F0836770F9E7000070000020100C014081
:1098D000C02600202E2E5C4472697665725C73721D
:1098E000635C44485431312E630000006572726F2E
:1098F00072203D2025642C2066696C65203D202562
:10990000732C206C696E65203D2025640A000000E0
:109910009CDE0008530000207469636B203D202505
:109920006C642C20646874206F6B3A20485F482078
:109930003D2025642C20485F4C203D2025642C20B0
:10994000545F48203D2025642C20545F4C203D204E
:1099500025640A0038B5134C6078C8B9A068FDF7D3
:109960009DFDA8B141F27070FDF7A2FDA06004F169
:109970000C006946807800EB80004000ADF80000E4
:109980000220FEF7C1FD04F10C010320FEF7BCFD2F
:10999000FBF7CAFBBDE8384000223221024803F041
:1099A00079BC000070000020DC26002010B50C46B9
:1099B0000A460146812000F041FC30210120FFF7DA
:1099C0002BF905490320087004488168091B816050
:1099D0000021017310BD0000E00100205837002075
:1099E000FDF752BFFDF7F4BFF0B5074687B0012180
:1099F0000420FEF791F801214804FEF72DF8042415
:109A0000ADF8104018208DF813001B4E03258DF87B
:109A1000125004A93046FCF775FA0820ADF8100082
:109A20008DF8134004A93046FCF76CFA26208DF817
:109A300014008DF8155002208DF8160001208DF8C5
:109A4000170005A8FDF70EFC0020ADF80400ADF8E6
:109A50000600ADF80800ADF80C000C20074CADF87E
:109A60000A0000976946204600F0FCF901212046D3
:109A700000F0A6F807B0F0BD000801400044004027
:109A8000FCF7B6BDF0B50546012187B08804FDF7A7
:109A9000E3FF4FF48060ADF8100018208DF813003C
:109AA0001D4F03268DF8126004A93846FCF72AFAE8
:109AB000F814ADF8100004248DF8134004A93846BA
:109AC000FCF720FA27208DF814008DF8156001218D
:109AD0008DF816108DF8171005A8FDF7C3FB0020B0
